{
  "_format": "hh-sol-artifact-1",
  "contractName": "RRCCNftToken",
  "sourceName": "contracts/RRCCNftToken.sol",
  "abi": [
    {
      "inputs": [
        {
          "internalType": "string",
          "name": "baseURI",
          "type": "string"
        }
      ],
      "stateMutability": "nonpayable",
      "type": "constructor"
    },
    {
      "inputs": [],
      "name": "ERC721EnumerableForbiddenBatchMint",
      "type": "error"
    },
    {
      "inputs": [
        {
          "internalType": "address",
          "name": "sender",
          "type": "address"
        },
        {
          "internalType": "uint256",
          "name": "tokenId",
          "type": "uint256"
        },
        {
          "internalType": "address",
          "name": "owner",
          "type": "address"
        }
      ],
      "name": "ERC721IncorrectOwner",
      "type": "error"
    },
    {
      "inputs": [
        {
          "internalType": "address",
          "name": "operator",
          "type": "address"
        },
        {
          "internalType": "uint256",
          "name": "tokenId",
          "type": "uint256"
        }
      ],
      "name": "ERC721InsufficientApproval",
      "type": "error"
    },
    {
      "inputs": [
        {
          "internalType": "address",
          "name": "approver",
          "type": "address"
        }
      ],
      "name": "ERC721InvalidApprover",
      "type": "error"
    },
    {
      "inputs": [
        {
          "internalType": "address",
          "name": "operator",
          "type": "address"
        }
      ],
      "name": "ERC721InvalidOperator",
      "type": "error"
    },
    {
      "inputs": [
        {
          "internalType": "address",
          "name": "owner",
          "type": "address"
        }
      ],
      "name": "ERC721InvalidOwner",
      "type": "error"
    },
    {
      "inputs": [
        {
          "internalType": "address",
          "name": "receiver",
          "type": "address"
        }
      ],
      "name": "ERC721InvalidReceiver",
      "type": "error"
    },
    {
      "inputs": [
        {
          "internalType": "address",
          "name": "sender",
          "type": "address"
        }
      ],
      "name": "ERC721InvalidSender",
      "type": "error"
    },
    {
      "inputs": [
        {
          "internalType": "uint256",
          "name": "tokenId",
          "type": "uint256"
        }
      ],
      "name": "ERC721NonexistentToken",
      "type": "error"
    },
    {
      "inputs": [
        {
          "internalType": "address",
          "name": "owner",
          "type": "address"
        },
        {
          "internalType": "uint256",
          "name": "index",
          "type": "uint256"
        }
      ],
      "name": "ERC721OutOfBoundsIndex",
      "type": "error"
    },
    {
      "inputs": [
        {
          "internalType": "address",
          "name": "owner",
          "type": "address"
        }
      ],
      "name": "OwnableInvalidOwner",
      "type": "error"
    },
    {
      "inputs": [
        {
          "internalType": "address",
          "name": "account",
          "type": "address"
        }
      ],
      "name": "OwnableUnauthorizedAccount",
      "type": "error"
    },
    {
      "anonymous": false,
      "inputs": [
        {
          "indexed": false,
          "internalType": "uint256",
          "name": "startIndex",
          "type": "uint256"
        },
        {
          "indexed": false,
          "internalType": "uint256",
          "name": "endIndex",
          "type": "uint256"
        },
        {
          "indexed": false,
          "internalType": "enum RRCCNftToken.TokenRange",
          "name": "tokenRange",
          "type": "uint8"
        }
      ],
      "name": "Airdropped",
      "type": "event"
    },
    {
      "anonymous": false,
      "inputs": [
        {
          "indexed": true,
          "internalType": "address",
          "name": "owner",
          "type": "address"
        },
        {
          "indexed": true,
          "internalType": "address",
          "name": "approved",
          "type": "address"
        },
        {
          "indexed": true,
          "internalType": "uint256",
          "name": "tokenId",
          "type": "uint256"
        }
      ],
      "name": "Approval",
      "type": "event"
    },
    {
      "anonymous": false,
      "inputs": [
        {
          "indexed": true,
          "internalType": "address",
          "name": "owner",
          "type": "address"
        },
        {
          "indexed": true,
          "internalType": "address",
          "name": "operator",
          "type": "address"
        },
        {
          "indexed": false,
          "internalType": "bool",
          "name": "approved",
          "type": "bool"
        }
      ],
      "name": "ApprovalForAll",
      "type": "event"
    },
    {
      "anonymous": false,
      "inputs": [
        {
          "indexed": false,
          "internalType": "string",
          "name": "newBaseURI",
          "type": "string"
        }
      ],
      "name": "BaseURIChanged",
      "type": "event"
    },
    {
      "anonymous": false,
      "inputs": [
        {
          "indexed": true,
          "internalType": "address",
          "name": "previousOwner",
          "type": "address"
        },
        {
          "indexed": true,
          "internalType": "address",
          "name": "newOwner",
          "type": "address"
        }
      ],
      "name": "OwnershipTransferred",
      "type": "event"
    },
    {
      "anonymous": false,
      "inputs": [
        {
          "indexed": false,
          "internalType": "uint256",
          "name": "startIndex",
          "type": "uint256"
        },
        {
          "indexed": false,
          "internalType": "uint256",
          "name": "endIndex",
          "type": "uint256"
        }
      ],
      "name": "PreMintedForSale",
      "type": "event"
    },
    {
      "anonymous": false,
      "inputs": [
        {
          "indexed": false,
          "internalType": "enum RRCCNftToken.TokenRange",
          "name": "tokenRange",
          "type": "uint8"
        },
        {
          "indexed": false,
          "internalType": "address",
          "name": "recipient",
          "type": "address"
        },
        {
          "indexed": false,
          "internalType": "uint256",
          "name": "percentage",
          "type": "uint256"
        }
      ],
      "name": "RoyaltyChanged",
      "type": "event"
    },
    {
      "anonymous": false,
      "inputs": [
        {
          "indexed": true,
          "internalType": "address",
          "name": "from",
          "type": "address"
        },
        {
          "indexed": true,
          "internalType": "address",
          "name": "to",
          "type": "address"
        },
        {
          "indexed": true,
          "internalType": "uint256",
          "name": "tokenId",
          "type": "uint256"
        }
      ],
      "name": "Transfer",
      "type": "event"
    },
    {
      "inputs": [],
      "name": "BASIS_POINTS_MAX",
      "outputs": [
        {
          "internalType": "uint256",
          "name": "",
          "type": "uint256"
        }
      ],
      "stateMutability": "view",
      "type": "function"
    },
    {
      "inputs": [],
      "name": "FIRST_SALE_ID",
      "outputs": [
        {
          "internalType": "uint256",
          "name": "",
          "type": "uint256"
        }
      ],
      "stateMutability": "view",
      "type": "function"
    },
    {
      "inputs": [],
      "name": "LAST_SALE_ID",
      "outputs": [
        {
          "internalType": "uint256",
          "name": "",
          "type": "uint256"
        }
      ],
      "stateMutability": "view",
      "type": "function"
    },
    {
      "inputs": [],
      "name": "MAX_SUPPLY",
      "outputs": [
        {
          "internalType": "uint256",
          "name": "",
          "type": "uint256"
        }
      ],
      "stateMutability": "view",
      "type": "function"
    },
    {
      "inputs": [],
      "name": "OG_COUNT",
      "outputs": [
        {
          "internalType": "uint256",
          "name": "",
          "type": "uint256"
        }
      ],
      "stateMutability": "view",
      "type": "function"
    },
    {
      "inputs": [],
      "name": "PROMO_COUNT",
      "outputs": [
        {
          "internalType": "uint256",
          "name": "",
          "type": "uint256"
        }
      ],
      "stateMutability": "view",
      "type": "function"
    },
    {
      "inputs": [
        {
          "internalType": "address[]",
          "name": "_recipients",
          "type": "address[]"
        },
        {
          "internalType": "enum RRCCNftToken.TokenRange",
          "name": "_tokenRange",
          "type": "uint8"
        }
      ],
      "name": "airdropNFT",
      "outputs": [],
      "stateMutability": "nonpayable",
      "type": "function"
    },
    {
      "inputs": [
        {
          "internalType": "address",
          "name": "to",
          "type": "address"
        },
        {
          "internalType": "uint256",
          "name": "tokenId",
          "type": "uint256"
        }
      ],
      "name": "approve",
      "outputs": [],
      "stateMutability": "nonpayable",
      "type": "function"
    },
    {
      "inputs": [
        {
          "internalType": "address",
          "name": "owner",
          "type": "address"
        }
      ],
      "name": "balanceOf",
      "outputs": [
        {
          "internalType": "uint256",
          "name": "",
          "type": "uint256"
        }
      ],
      "stateMutability": "view",
      "type": "function"
    },
    {
      "inputs": [
        {
          "internalType": "enum RRCCNftToken.TokenRange",
          "name": "_tokenRange",
          "type": "uint8"
        }
      ],
      "name": "boundsForTokenRange",
      "outputs": [
        {
          "internalType": "uint256",
          "name": "",
          "type": "uint256"
        },
        {
          "internalType": "uint256",
          "name": "",
          "type": "uint256"
        }
      ],
      "stateMutability": "pure",
      "type": "function"
    },
    {
      "inputs": [
        {
          "internalType": "uint256",
          "name": "tokenId",
          "type": "uint256"
        }
      ],
      "name": "burn",
      "outputs": [],
      "stateMutability": "nonpayable",
      "type": "function"
    },
    {
      "inputs": [
        {
          "internalType": "uint256",
          "name": "tokenId",
          "type": "uint256"
        }
      ],
      "name": "getApproved",
      "outputs": [
        {
          "internalType": "address",
          "name": "",
          "type": "address"
        }
      ],
      "stateMutability": "view",
      "type": "function"
    },
    {
      "inputs": [
        {
          "internalType": "enum RRCCNftToken.TokenRange",
          "name": "_tokenRange",
          "type": "uint8"
        }
      ],
      "name": "getRoyalty",
      "outputs": [
        {
          "internalType": "address",
          "name": "recipient",
          "type": "address"
        },
        {
          "internalType": "uint256",
          "name": "percentage",
          "type": "uint256"
        }
      ],
      "stateMutability": "view",
      "type": "function"
    },
    {
      "inputs": [
        {
          "internalType": "address",
          "name": "owner",
          "type": "address"
        },
        {
          "internalType": "address",
          "name": "operator",
          "type": "address"
        }
      ],
      "name": "isApprovedForAll",
      "outputs": [
        {
          "internalType": "bool",
          "name": "",
          "type": "bool"
        }
      ],
      "stateMutability": "view",
      "type": "function"
    },
    {
      "inputs": [],
      "name": "name",
      "outputs": [
        {
          "internalType": "string",
          "name": "",
          "type": "string"
        }
      ],
      "stateMutability": "view",
      "type": "function"
    },
    {
      "inputs": [
        {
          "internalType": "enum RRCCNftToken.TokenRange",
          "name": "_tokenRange",
          "type": "uint8"
        }
      ],
      "name": "nftLeftFor",
      "outputs": [
        {
          "internalType": "uint256",
          "name": "",
          "type": "uint256"
        }
      ],
      "stateMutability": "view",
      "type": "function"
    },
    {
      "inputs": [],
      "name": "owner",
      "outputs": [
        {
          "internalType": "address",
          "name": "",
          "type": "address"
        }
      ],
      "stateMutability": "view",
      "type": "function"
    },
    {
      "inputs": [
        {
          "internalType": "uint256",
          "name": "tokenId",
          "type": "uint256"
        }
      ],
      "name": "ownerOf",
      "outputs": [
        {
          "internalType": "address",
          "name": "",
          "type": "address"
        }
      ],
      "stateMutability": "view",
      "type": "function"
    },
    {
      "inputs": [
        {
          "internalType": "address",
          "name": "_marketplaceAddress",
          "type": "address"
        },
        {
          "internalType": "uint256",
          "name": "_numberOfTokens",
          "type": "uint256"
        }
      ],
      "name": "preMintForSale",
      "outputs": [],
      "stateMutability": "nonpayable",
      "type": "function"
    },
    {
      "inputs": [],
      "name": "renounceOwnership",
      "outputs": [],
      "stateMutability": "nonpayable",
      "type": "function"
    },
    {
      "inputs": [
        {
          "internalType": "enum RRCCNftToken.TokenRange",
          "name": "",
          "type": "uint8"
        }
      ],
      "name": "royalties",
      "outputs": [
        {
          "internalType": "address",
          "name": "recipient",
          "type": "address"
        },
        {
          "internalType": "uint256",
          "name": "percentage",
          "type": "uint256"
        }
      ],
      "stateMutability": "view",
      "type": "function"
    },
    {
      "inputs": [
        {
          "internalType": "uint256",
          "name": "_tokenId",
          "type": "uint256"
        },
        {
          "internalType": "uint256",
          "name": "_salePrice",
          "type": "uint256"
        }
      ],
      "name": "royaltyInfo",
      "outputs": [
        {
          "internalType": "address",
          "name": "",
          "type": "address"
        },
        {
          "internalType": "uint256",
          "name": "",
          "type": "uint256"
        }
      ],
      "stateMutability": "view",
      "type": "function"
    },
    {
      "inputs": [
        {
          "internalType": "address",
          "name": "from",
          "type": "address"
        },
        {
          "internalType": "address",
          "name": "to",
          "type": "address"
        },
        {
          "internalType": "uint256",
          "name": "tokenId",
          "type": "uint256"
        }
      ],
      "name": "safeTransferFrom",
      "outputs": [],
      "stateMutability": "nonpayable",
      "type": "function"
    },
    {
      "inputs": [
        {
          "internalType": "address",
          "name": "from",
          "type": "address"
        },
        {
          "internalType": "address",
          "name": "to",
          "type": "address"
        },
        {
          "internalType": "uint256",
          "name": "tokenId",
          "type": "uint256"
        },
        {
          "internalType": "bytes",
          "name": "data",
          "type": "bytes"
        }
      ],
      "name": "safeTransferFrom",
      "outputs": [],
      "stateMutability": "nonpayable",
      "type": "function"
    },
    {
      "inputs": [
        {
          "internalType": "address",
          "name": "operator",
          "type": "address"
        },
        {
          "internalType": "bool",
          "name": "approved",
          "type": "bool"
        }
      ],
      "name": "setApprovalForAll",
      "outputs": [],
      "stateMutability": "nonpayable",
      "type": "function"
    },
    {
      "inputs": [
        {
          "internalType": "string",
          "name": "_uri",
          "type": "string"
        }
      ],
      "name": "setBaseURI",
      "outputs": [],
      "stateMutability": "nonpayable",
      "type": "function"
    },
    {
      "inputs": [
        {
          "internalType": "enum RRCCNftToken.TokenRange",
          "name": "_tokenRange",
          "type": "uint8"
        },
        {
          "internalType": "address",
          "name": "_recipient",
          "type": "address"
        },
        {
          "internalType": "uint256",
          "name": "_percentage",
          "type": "uint256"
        }
      ],
      "name": "setRoyalty",
      "outputs": [],
      "stateMutability": "nonpayable",
      "type": "function"
    },
    {
      "inputs": [
        {
          "internalType": "bytes4",
          "name": "interfaceId",
          "type": "bytes4"
        }
      ],
      "name": "supportsInterface",
      "outputs": [
        {
          "internalType": "bool",
          "name": "",
          "type": "bool"
        }
      ],
      "stateMutability": "view",
      "type": "function"
    },
    {
      "inputs": [],
      "name": "symbol",
      "outputs": [
        {
          "internalType": "string",
          "name": "",
          "type": "string"
        }
      ],
      "stateMutability": "view",
      "type": "function"
    },
    {
      "inputs": [
        {
          "internalType": "uint256",
          "name": "index",
          "type": "uint256"
        }
      ],
      "name": "tokenByIndex",
      "outputs": [
        {
          "internalType": "uint256",
          "name": "",
          "type": "uint256"
        }
      ],
      "stateMutability": "view",
      "type": "function"
    },
    {
      "inputs": [
        {
          "internalType": "address",
          "name": "owner",
          "type": "address"
        },
        {
          "internalType": "uint256",
          "name": "index",
          "type": "uint256"
        }
      ],
      "name": "tokenOfOwnerByIndex",
      "outputs": [
        {
          "internalType": "uint256",
          "name": "",
          "type": "uint256"
        }
      ],
      "stateMutability": "view",
      "type": "function"
    },
    {
      "inputs": [
        {
          "internalType": "uint256",
          "name": "tokenId",
          "type": "uint256"
        }
      ],
      "name": "tokenURI",
      "outputs": [
        {
          "internalType": "string",
          "name": "",
          "type": "string"
        }
      ],
      "stateMutability": "view",
      "type": "function"
    },
    {
      "inputs": [],
      "name": "totalSupply",
      "outputs": [
        {
          "internalType": "uint256",
          "name": "",
          "type": "uint256"
        }
      ],
      "stateMutability": "view",
      "type": "function"
    },
    {
      "inputs": [
        {
          "internalType": "address",
          "name": "from",
          "type": "address"
        },
        {
          "internalType": "address",
          "name": "to",
          "type": "address"
        },
        {
          "internalType": "uint256",
          "name": "tokenId",
          "type": "uint256"
        }
      ],
      "name": "transferFrom",
      "outputs": [],
      "stateMutability": "nonpayable",
      "type": "function"
    },
    {
      "inputs": [
        {
          "internalType": "address",
          "name": "newOwner",
          "type": "address"
        }
      ],
      "name": "transferOwnership",
      "outputs": [],
      "stateMutability": "nonpayable",
      "type": "function"
    }
  ],
  "bytecode": "0x60806040526000600b556103f3600c556000600d553480156200002157600080fd5b506040516200278c3803806200278c833981016040819052620000449162000162565b336040518060400160405280600b81526020016a149d5cdd1e48149bd89bdd60aa1b815250604051806040016040528060048152602001635252434360e01b8152508160009081620000979190620002c6565b506001620000a68282620002c6565b5050506001600160a01b038116620000d857604051631e4fbdf760e01b81526000600482015260240160405180910390fd5b620000e381620000fa565b50600e620000f28282620002c6565b505062000392565b600a80546001600160a01b038381166001600160a01b0319831681179093556040519116919082907f8be0079c531659141344cd1fd0a4f28419497f9722a3daafe3b4186f6b6457e090600090a35050565b634e487b7160e01b600052604160045260246000fd5b600060208083850312156200017657600080fd5b82516001600160401b03808211156200018e57600080fd5b818501915085601f830112620001a357600080fd5b815181811115620001b857620001b86200014c565b604051601f8201601f19908116603f01168101908382118183101715620001e357620001e36200014c565b816040528281528886848701011115620001fc57600080fd5b600093505b8284101562000220578484018601518185018701529285019262000201565b600086848301015280965050505050505092915050565b600181811c908216806200024c57607f821691505b6020821081036200026d57634e487b7160e01b600052602260045260246000fd5b50919050565b601f821115620002c157600081815260208120601f850160051c810160208610156200029c5750805b601f850160051c820191505b81811015620002bd57828155600101620002a8565b5050505b505050565b81516001600160401b03811115620002e257620002e26200014c565b620002fa81620002f3845462000237565b8462000273565b602080601f831160018114620003325760008415620003195750858301515b600019600386901b1c1916600185901b178555620002bd565b600085815260208120601f198616915b82811015620003635788860151825594840194600190910190840162000342565b5085821015620003825787850151600019600388901b60f8161c191681555b5050505050600190811b01905550565b6123ea80620003a26000396000f3fe608060405234801561001057600080fd5b50600436106102115760003560e01c806355f804b31161012557806395d89b41116100ad578063c3c10cca1161007c578063c3c10cca14610496578063c87b56dd1461049f578063dbf52e55146104b2578063e985e9c5146104ba578063f2fde38b146104cd57600080fd5b806395d89b4114610455578063a22cb4651461045d578063b88d4fde14610470578063bb7c7cd01461048357600080fd5b806370a08231116100f457806370a082311461040e578063715018a614610421578063719a7aed146104295780638217eae1146104315780638da5cb5b1461044457600080fd5b806355f804b3146103ac5780636352211e146103bf5780636c9bcb30146103d25780636e41b5da1461040557600080fd5b806323b872dd116101a8578063386fdd4811610177578063386fdd481461034d57806342842e0e1461036057806342966c68146103735780634cac391d146103865780634f6ccce71461039957600080fd5b806323b872dd146102ec5780632a55205a146102ff5780632f745c591461033157806332cb6b0c1461034457600080fd5b80630ade1a15116101e45780630ade1a151461029357806318160ddd146102a95780631b53c88d146102b157806321f19945146102c457600080fd5b806301ffc9a71461021657806306fdde031461023e578063081812fc14610253578063095ea7b31461027e575b600080fd5b610229610224366004611ccf565b6104e0565b60405190151581526020015b60405180910390f35b61024661050b565b6040516102359190611d3c565b610266610261366004611d4f565b61059d565b6040516001600160a01b039091168152602001610235565b61029161028c366004611d7f565b6105c6565b005b61029b602781565b604051908152602001610235565b60085461029b565b61029b6102bf366004611db8565b6105d5565b6102d76102d2366004611db8565b6106c7565b60408051928352602083019190915201610235565b6102916102fa366004611dd3565b610806565b61031261030d366004611e0f565b610896565b604080516001600160a01b039093168352602083019190915201610235565b61029b61033f366004611d7f565b61092d565b61029b612b6781565b61029161035b366004611e31565b610992565b61029161036e366004611dd3565b610aa3565b610291610381366004611d4f565b610ac3565b610312610394366004611db8565b610acf565b61029b6103a7366004611d4f565b610b3c565b6102916103ba366004611edb565b610b95565b6102666103cd366004611d4f565b610be4565b6103126103e0366004611db8565b600f60205260009081526040902080546001909101546001600160a01b039091169082565b61029b6103f381565b61029b61041c366004611f24565b610bef565b610291610c37565b61029b610c4b565b61029161043f366004611d7f565b610cc4565b600a546001600160a01b0316610266565b610246610f3c565b61029161046b366004611f3f565b610f4b565b61029161047e366004611f7b565b610f56565b610291610491366004611ff7565b610f6d565b61029b61271081565b6102466104ad366004611d4f565b611135565b61029b61119c565b6102296104c836600461207b565b6111e2565b6102916104db366004611f24565b611210565b60006001600160e01b0319821663780e9d6360e01b148061050557506105058261124e565b92915050565b60606000805461051a906120ae565b80601f0160208091040260200160405190810160405280929190818152602001828054610546906120ae565b80156105935780601f1061056857610100808354040283529160200191610593565b820191906000526020600020905b81548152906001019060200180831161057657829003601f168201915b5050505050905090565b60006105a88261129e565b506000828152600460205260409020546001600160a01b0316610505565b6105d18282336112d7565b5050565b6000808260028111156105ea576105ea6120e8565b036105fe57600b54610505906103f3612114565b6001826002811115610612576106126120e8565b0361064857600c54600161062960276103f3612127565b6106339190612114565b61063e906001612127565b6105059190612114565b6000600d5460001461066757600d54610662906001612127565b6106ad565b60016027816106796103f36000612127565b6106839190612114565b61068e906001612127565b6106989190612127565b6106a29190612114565b6106ad906001612127565b90506106bb81612b67612114565b9392505050565b919050565b600080808360028111156106dd576106dd6120e8565b0361070557600060016106f26103f383612127565b6106fc9190612114565b91509150915091565b6001836002811115610719576107196120e8565b0361077357600161072d6103f36000612127565b6107379190612114565b610742906001612127565b60016027816107546103f36000612127565b61075e9190612114565b610769906001612127565b6106f29190612127565b60016027816107856103f36000612127565b61078f9190612114565b61079a906001612127565b6107a49190612127565b6107ae9190612114565b6107b9906001612127565b600160276107cb6103f3612b67612114565b6107d59190612114565b60016027816107e76103f36000612127565b6107f19190612114565b6107fc906001612127565b6107549190612127565b6001600160a01b03821661083557604051633250574960e11b8152600060048201526024015b60405180910390fd5b60006108428383336112e4565b9050836001600160a01b0316816001600160a01b031614610890576040516364283d7b60e01b81526001600160a01b038086166004830152602482018490528216604482015260640161082c565b50505050565b60008060006108a4856113b9565b90506000600f60008360028111156108be576108be6120e8565b60028111156108cf576108cf6120e8565b81526020808201929092526040908101600020815180830190925280546001600160a01b03168083526001909101549282018390529092509061271090610916908861213a565b6109209190612151565b9350935050509250929050565b600061093883610bef565b82106109695760405163295f44f760e21b81526001600160a01b03841660048201526024810183905260440161082c565b506001600160a01b03919091166000908152600660209081526040808320938352929052205490565b61099a61140c565b6127108111156109e25760405162461bcd60e51b81526020600482015260136024820152720a0cae4c6cadce8c2ceca40e8dede40d0d2ced606b1b604482015260640161082c565b6040518060400160405280836001600160a01b0316815260200182815250600f6000856002811115610a1657610a166120e8565b6002811115610a2757610a276120e8565b81526020808201929092526040908101600020835181546001600160a01b0319166001600160a01b039091161781559290910151600190920191909155517f6e993373a1a815f4d389d0aedfb8715bb2fc1620252f32035c3c0fe5163ac00890610a9690859085908590612195565b60405180910390a1505050565b610abe83838360405180602001604052806000815250610f56565b505050565b6105d1600082336112e4565b6000806000600f6000856002811115610aea57610aea6120e8565b6002811115610afb57610afb6120e8565b81526020808201929092526040908101600020815180830190925280546001600160a01b031680835260019091015491909201819052909590945092505050565b6000610b4760085490565b8210610b705760405163295f44f760e21b8152600060048201526024810183905260440161082c565b60088281548110610b8357610b836121bd565b90600052602060002001549050919050565b610b9d61140c565b600e610ba98282612221565b507f5411e8ebf1636d9e83d5fc4900bf80cbac82e8790da2a4c94db4895e889eedf681604051610bd99190611d3c565b60405180910390a150565b60006105058261129e565b60006001600160a01b038216610c1b576040516322718ad960e21b81526000600482015260240161082c565b506001600160a01b031660009081526003602052604090205490565b610c3f61140c565b610c496000611439565b565b60016027610c5d6103f3612b67612114565b610c679190612114565b6001602781610c796103f36000612127565b610c839190612114565b610c8e906001612127565b610c989190612127565b610ca29190612114565b610cad906001612127565b610cb79190612127565b610cc19190612114565b81565b610ccc61140c565b6103f3600b5414610d1f5760405162461bcd60e51b815260206004820152601960248201527f436f6d706c657465204f472061697264726f7020666972737400000000000000604482015260640161082c565b6000600d54600014610d3e5781600d54610d399190612127565b610d9a565b60018281602781610d526103f36000612127565b610d5c9190612114565b610d67906001612127565b610d719190612127565b610d7b9190612114565b610d86906001612127565b610d909190612127565b610d9a9190612114565b905060016027610dae6103f3612b67612114565b610db89190612114565b6001602781610dca6103f36000612127565b610dd49190612114565b610ddf906001612127565b610de99190612127565b610df39190612114565b610dfe906001612127565b610e089190612127565b610e129190612114565b811115610e6b5760405162461bcd60e51b815260206004820152602160248201527f45786365656473206d6178206e756d626572206f662073616c6520746f6b656e6044820152607360f81b606482015260840161082c565b6000600d54600014610e8a57600d54610e85906001612127565b610ed0565b6001602781610e9c6103f36000612127565b610ea69190612114565b610eb1906001612127565b610ebb9190612127565b610ec59190612114565b610ed0906001612127565b9050805b828111610ef757610ee5858261148b565b80610eef816122e1565b915050610ed4565b50600d82905560408051828152602081018490527fc9b3a7c16f11776fed84f889ddcf3ed220acb777a08a0e89a448a140cb49355e910160405180910390a150505050565b60606001805461051a906120ae565b6105d13383836114a5565b610f61848484610806565b61089084848484611544565b610f7561140c565b6002816002811115610f8957610f896120e8565b03610fd65760405162461bcd60e51b815260206004820181905260248201527f53616c6520746f6b656e732063616e6e6f742062652061697264726f70706564604482015260640161082c565b600080826002811115610feb57610feb6120e8565b14610ff857600c54610ffc565b600b545b90506000611009836105d5565b90508381101561105b5760405162461bcd60e51b815260206004820181905260248201527f4e6f7420656e6f756768204e465473206c65667420666f722061697264726f70604482015260640161082c565b60005b848110156110b65761109686868381811061107b5761107b6121bd565b90506020020160208101906110909190611f24565b8461148b565b826110a0816122e1565b93505080806110ae906122e1565b91505061105e565b5060008360028111156110cb576110cb6120e8565b036110da57600b8290556110e0565b600c8290555b7fbb836bc9f960ee86cef09e252f48d52715673a9ea275c80a5e81e236911e1b1e61110b8584612114565b611116600185612114565b85604051611126939291906122fa565b60405180910390a15050505050565b60606111408261129e565b50600061114b61166d565b9050600081511161116b57604051806020016040528060008152506106bb565b806111758461167c565b604051602001611186929190612315565b6040516020818303038152906040529392505050565b60016027816111ae6103f36000612127565b6111b89190612114565b6111c3906001612127565b6111cd9190612127565b6111d79190612114565b610cc1906001612127565b6001600160a01b03918216600090815260056020908152604080832093909416825291909152205460ff1690565b61121861140c565b6001600160a01b03811661124257604051631e4fbdf760e01b81526000600482015260240161082c565b61124b81611439565b50565b60006001600160e01b031982166380ac58cd60e01b148061127f57506001600160e01b03198216635b5e139f60e01b145b8061050557506301ffc9a760e01b6001600160e01b0319831614610505565b6000818152600260205260408120546001600160a01b03168061050557604051637e27328960e01b81526004810184905260240161082c565b610abe838383600161170f565b6000806112f2858585611815565b90506001600160a01b03811661134f5761134a84600880546000838152600960205260408120829055600182018355919091527ff3f7a9fe364faab93b216da50a3214154f22a0a2b415b23a84c8169e8b636ee30155565b611372565b846001600160a01b0316816001600160a01b03161461137257611372818561190e565b6001600160a01b03851661138e576113898461199f565b6113b1565b846001600160a01b0316816001600160a01b0316146113b1576113b18585611a4e565b949350505050565b60006103f38210156113cd57506000919050565b6103f382101580156113f7575060016113e960276103f3612127565b6113f39190612114565b8211155b1561140457506001919050565b506002919050565b600a546001600160a01b03163314610c495760405163118cdaa760e01b815233600482015260240161082c565b600a80546001600160a01b038381166001600160a01b0319831681179093556040519116919082907f8be0079c531659141344cd1fd0a4f28419497f9722a3daafe3b4186f6b6457e090600090a35050565b6105d1828260405180602001604052806000815250611a9e565b6001600160a01b0382166114d757604051630b61174360e31b81526001600160a01b038316600482015260240161082c565b6001600160a01b03838116600081815260056020908152604080832094871680845294825291829020805460ff191686151590811790915591519182527f17307eab39ab6107e8899845ad3d59bd9653f200f220920489ca2b5937696c31910160405180910390a3505050565b6001600160a01b0383163b1561089057604051630a85bd0160e11b81526001600160a01b0384169063150b7a0290611586903390889087908790600401612344565b6020604051808303816000875af19250505080156115c1575060408051601f3d908101601f191682019092526115be91810190612381565b60015b61162a573d8080156115ef576040519150601f19603f3d011682016040523d82523d6000602084013e6115f4565b606091505b50805160000361162257604051633250574960e11b81526001600160a01b038516600482015260240161082c565b805181602001fd5b6001600160e01b03198116630a85bd0160e11b1461166657604051633250574960e11b81526001600160a01b038516600482015260240161082c565b5050505050565b6060600e805461051a906120ae565b6060600061168983611ab5565b600101905060008167ffffffffffffffff8111156116a9576116a9611e4f565b6040519080825280601f01601f1916602001820160405280156116d3576020820181803683370190505b5090508181016020015b600019016f181899199a1a9b1b9c1cb0b131b232b360811b600a86061a8153600a85049450846116dd57509392505050565b808061172357506001600160a01b03821615155b156117e55760006117338461129e565b90506001600160a01b0383161580159061175f5750826001600160a01b0316816001600160a01b031614155b8015611772575061177081846111e2565b155b1561179b5760405163a9fbf51f60e01b81526001600160a01b038416600482015260240161082c565b81156117e35783856001600160a01b0316826001600160a01b03167f8c5be1e5ebec7d5bd14f71427d1e84f3dd0314c0f7b2291e5b200ac8c7c3b92560405160405180910390a45b505b5050600090815260046020526040902080546001600160a01b0319166001600160a01b0392909216919091179055565b6000828152600260205260408120546001600160a01b039081169083161561184257611842818486611b8d565b6001600160a01b038116156118805761185f60008560008061170f565b6001600160a01b038116600090815260036020526040902080546000190190555b6001600160a01b038516156118af576001600160a01b0385166000908152600360205260409020805460010190555b60008481526002602052604080822080546001600160a01b0319166001600160a01b0389811691821790925591518793918516917fddf252ad1be2c89b69c2b068fc378daa952ba7f163c4a11628f55a4df523b3ef91a4949350505050565b600061191983610bef565b60008381526007602052604090205490915080821461196c576001600160a01b03841660009081526006602090815260408083208584528252808320548484528184208190558352600790915290208190555b5060009182526007602090815260408084208490556001600160a01b039094168352600681528383209183525290812055565b6008546000906119b190600190612114565b600083815260096020526040812054600880549394509092849081106119d9576119d96121bd565b9060005260206000200154905080600883815481106119fa576119fa6121bd565b6000918252602080832090910192909255828152600990915260408082208490558582528120556008805480611a3257611a3261239e565b6001900381819060005260206000200160009055905550505050565b60006001611a5b84610bef565b611a659190612114565b6001600160a01b039093166000908152600660209081526040808320868452825280832085905593825260079052919091209190915550565b611aa88383611bf1565b610abe6000848484611544565b60008072184f03e93ff9f4daa797ed6e38ed64bf6a1f0160401b8310611af45772184f03e93ff9f4daa797ed6e38ed64bf6a1f0160401b830492506040015b6d04ee2d6d415b85acef81000000008310611b20576d04ee2d6d415b85acef8100000000830492506020015b662386f26fc100008310611b3e57662386f26fc10000830492506010015b6305f5e1008310611b56576305f5e100830492506008015b6127108310611b6a57612710830492506004015b60648310611b7c576064830492506002015b600a83106105055760010192915050565b611b98838383611c56565b610abe576001600160a01b038316611bc657604051637e27328960e01b81526004810182905260240161082c565b60405163177e802f60e01b81526001600160a01b03831660048201526024810182905260440161082c565b6001600160a01b038216611c1b57604051633250574960e11b81526000600482015260240161082c565b6000611c29838360006112e4565b90506001600160a01b03811615610abe576040516339e3563760e11b81526000600482015260240161082c565b60006001600160a01b038316158015906113b15750826001600160a01b0316846001600160a01b03161480611c905750611c9084846111e2565b806113b15750506000908152600460205260409020546001600160a01b03908116911614919050565b6001600160e01b03198116811461124b57600080fd5b600060208284031215611ce157600080fd5b81356106bb81611cb9565b60005b83811015611d07578181015183820152602001611cef565b50506000910152565b60008151808452611d28816020860160208601611cec565b601f01601f19169290920160200192915050565b6020815260006106bb6020830184611d10565b600060208284031215611d6157600080fd5b5035919050565b80356001600160a01b03811681146106c257600080fd5b60008060408385031215611d9257600080fd5b611d9b83611d68565b946020939093013593505050565b8035600381106106c257600080fd5b600060208284031215611dca57600080fd5b6106bb82611da9565b600080600060608486031215611de857600080fd5b611df184611d68565b9250611dff60208501611d68565b9150604084013590509250925092565b60008060408385031215611e2257600080fd5b50508035926020909101359150565b600080600060608486031215611e4657600080fd5b611df184611da9565b634e487b7160e01b600052604160045260246000fd5b600067ffffffffffffffff80841115611e8057611e80611e4f565b604051601f8501601f19908116603f01168101908282118183101715611ea857611ea8611e4f565b81604052809350858152868686011115611ec157600080fd5b858560208301376000602087830101525050509392505050565b600060208284031215611eed57600080fd5b813567ffffffffffffffff811115611f0457600080fd5b8201601f81018413611f1557600080fd5b6113b184823560208401611e65565b600060208284031215611f3657600080fd5b6106bb82611d68565b60008060408385031215611f5257600080fd5b611f5b83611d68565b915060208301358015158114611f7057600080fd5b809150509250929050565b60008060008060808587031215611f9157600080fd5b611f9a85611d68565b9350611fa860208601611d68565b925060408501359150606085013567ffffffffffffffff811115611fcb57600080fd5b8501601f81018713611fdc57600080fd5b611feb87823560208401611e65565b91505092959194509250565b60008060006040848603121561200c57600080fd5b833567ffffffffffffffff8082111561202457600080fd5b818601915086601f83011261203857600080fd5b81358181111561204757600080fd5b8760208260051b850101111561205c57600080fd5b6020928301955093506120729186019050611da9565b90509250925092565b6000806040838503121561208e57600080fd5b61209783611d68565b91506120a560208401611d68565b90509250929050565b600181811c908216806120c257607f821691505b6020821081036120e257634e487b7160e01b600052602260045260246000fd5b50919050565b634e487b7160e01b600052602160045260246000fd5b634e487b7160e01b600052601160045260246000fd5b81810381811115610505576105056120fe565b80820180821115610505576105056120fe565b8082028115828204841417610505576105056120fe565b60008261216e57634e487b7160e01b600052601260045260246000fd5b500490565b6003811061219157634e487b7160e01b600052602160045260246000fd5b9052565b606081016121a38286612173565b6001600160a01b0393909316602082015260400152919050565b634e487b7160e01b600052603260045260246000fd5b601f821115610abe57600081815260208120601f850160051c810160208610156121fa5750805b601f850160051c820191505b8181101561221957828155600101612206565b505050505050565b815167ffffffffffffffff81111561223b5761223b611e4f565b61224f8161224984546120ae565b846121d3565b602080601f831160018114612284576000841561226c5750858301515b600019600386901b1c1916600185901b178555612219565b600085815260208120601f198616915b828110156122b357888601518255948401946001909101908401612294565b50858210156122d15787850151600019600388901b60f8161c191681555b5050505050600190811b01905550565b6000600182016122f3576122f36120fe565b5060010190565b83815260208101839052606081016113b16040830184612173565b60008351612327818460208801611cec565b83519083019061233b818360208801611cec565b01949350505050565b6001600160a01b038581168252841660208201526040810183905260806060820181905260009061237790830184611d10565b9695505050505050565b60006020828403121561239357600080fd5b81516106bb81611cb9565b634e487b7160e01b600052603160045260246000fdfea26469706673582212202aee8e3b46a34fd24c820380ae75475b138c16ef71d60edcb77c7a8141b5609064736f6c63430008150033",
  "linkReferences": {},
  "deployedLinkReferences": {}
}